:1000000044C051C050C04FC0DBC34DC04CC04BC0FA
:100010004AC049C048C047C046C045C044C043C0AC
:1000200042C041C040C03F065B4F666D7D077F6F99
:10003000024101000000024A010242010264010083
:100040000000026401024201024A01000000026451
:1000500003024203024A030242030237030242023E
:10006000000001000003026403024203024A03028B
:100070004203023103024202000001000000033E7D
:100080000102FC01027E0100000011241FBECFED21
:10009000CDBF20E0A0E6B0E001C01D92A937B207B5
:1000A000E1F7DBD18FC3ACCF90E0FC01E559FF4F06
:1000B0002082FC01E05AFF4F8A599F4FDC018C914E
:1000C00080830895DD2021F080E0EEDF81E003C031
:1000D00082E0EADF83E0E8CF90E0FC01EA59FF4FDD
:1000E0003081311106C0805A9F4FDC018C91C22CA7
:1000F00080830895DD2041F010926B0080E0ECDFFA
:1001000010926C0081E007C010926D0082E0E4DF85
:1001100010926E0083E0E0CFE62FF0E0EA5DFF4F43
:10012000E49160E0411160E8E62BC22CA82FB0E01A
:10013000AA59BF4FEC930895FF92CF93DF93D82F26
:10014000F62EC42D642D62956F7040E0E5DF6C2FB4
:100150006F704F2D81E08D0FDF91CF91FF90DCCF3D
:10016000FF92CF93DF93D82FF62EC12F612F629588
:100170006F7040E0D1DF6C2F6F704F2D81E08D0FDD
:10018000DF91CF91FF90C8CFCF93023051F1C32DB3
:10019000332089F0882329F1632D62956F7040E048
:1001A00080E0BADF6C2F6F7041E081E0B5DF60E086
:1001B00082E0CF91C1CF442049F0882391F061E0E3
:1001C00080E0BADF60E082E0CF91CACF61E080E0FA
:1001D000C7DFC22C10926800652D40E083E0CF910C
:1001E0009BCFCF91089581E0CFCF82E0CDCF83E048
:1001F000CBCF81E08A95F1F70895C49AC39AF9DFCD
:10020000C4980895C398F5DFC498F3DFC39AF1DF6B
:10021000C49A0895CF93DF93D82FC8E0C398D0FF36
:1002200002C0C49A01C0C498E4DFC39AE2DFD69545
:10023000C150A1F7C398BC98C49ADBDFDADFC39A38
:10024000D8DFC398BC9ADF91CF910895512C10E06C
:10025000412C312C80E098DFC6DFC7DFC8CFF6DF46
:10026000812C10E1C0CF13BE039790937000809350
:100270006F00722C089580E390E0F5CF0230A9F46E
:10028000FADF10926B0080E027DF10926C0081E0B3
:1002900023DF10926D0082E01FDF10926E0083E07A
:1002A0001BDF00E0D12CDBDF0DCF0895FC01808146
:1002B000882381F0662311F03FEF04C0318133239E
:1002C00021F03150318380E0089510825FEF518337
:1002D00081E00895662381F331813111F2CF2082CC
:1002E0004FEF418382E00895982F9F7011F0815065
:1002F000089587500895CF93832D311004C083E271
:10030000382EC22D03C0F0DF382EC0E070DF8C2FF6
:10031000CF910895CF93C82F842D411007C089E550
:10032000482ECC2331F0E7DFC82F03C0DDDF482E95
:10033000C0E05BDF8C2FCF910895CF93C82F812F22
:10034000111107C019E5CC2339F081E0E3DFC82F94
:1003500003C0CADF182FC0E046DF8C2FCF9108956D
:10036000C9DE332061F0DD2039F0C5DF311028C04F
:1003700033E2332E3CDF24C080E0CCDF21C04420B8
:1003800061F080E0DD2039F0C5DF411019C099E54A
:10039000492E2BDF15C0D1DF13C0DD2039F080E0FE
:1003A000CCDF11110DC019E51EDF0AC0852D5110DB
:1003B00003C089E0582E02C08150582E80E0E4DE50
:1003C00081CE982F9F70993011F4895F08958F5FC7
:1003D0000895812F10E0893511F0F3DF182F03DF26
:1003E00080E00895842D412C893511F0EADF482EF4
:1003F000FCDE80E008957EDE832D332081F0DD2059
:1004000061F0312C833211F0DCDF382EF0DE311058
:1004100023C033243394EBDE1FC0E4DF1DC044202F
:1004200059F0DD2039F0DEDF411016C0442443943A
:10043000DCDE12C0CEDF10C0DD2031F0CADF1111CA
:100440000BC011E0D0DE08C0852D512C893011F091
:100450008F5F582E80E098DE35CE22242394312CF5
:10046000412C512C612C712C812C912CA12CB12C64
:10047000C22CD12C00E010E020E088E199E20FB618
:10048000F894A89581BD0FBE91BD899AB89ABA9A81
:10049000BB9AB998C19ABD98C59ABE98C69ABF989A
:1004A000C79A8898909A8E98969A8C98949A209247
:1004B00077003FEF309378008D98959A20927500E1
:1004C000309376008A98929A209273003093740049
:1004D0008B98939A209271003093720046ED53E30B
:1004E0005BBD4ABD59B7506459BF6EB56A606EBDF9
:1004F0009198B5DEE7DD8EE790E0B5DE7894A895BB
:10050000222309F4B3C020E0772D7720F9F0715051
:10051000772EE1F4A0916F00B0917000ED01239669
:10052000D0937000C0936F00FD013596E4917E2E4C
:10053000E11102C013BE0AC0FE01D4911496FD0160
:10054000B49112BEF2E4F0BFB6BFD3BFD0E0C0E0BA
:10055000F0906A00FE01E559FF4F8081882379F011
:10056000FF2019F08C2FB8DD0AC0FE01EA59FF4FB9
:100570009081DE01A05ABF4F9C93C22C108221961D
:10058000C430D10529F7F094F0926A00662061F139
:10059000352D511006C079E0572E81E0CEDEC82FF0
:1005A00003C03150532EC0E080E0EEDDCC23E1F0FB
:1005B0004DDE612C91988EE490E055DE02E0C22C75
:1005C0004FE3409366005CE55093670064E56093F9
:1005D000680079E77093690080E066DD81E064DDA2
:1005E00082E062DD83E060DDD0916500BD2FB095D3
:1005F000B0936500D32111F0C09A01C0C098F0916A
:100600007700F11109C08B2DBB2019F08150B82E55
:1006100003C0011101C0A4DEF0907500F11009C003
:10062000EA2DAA2019F0E150AE2E03C0011101C03D
:10063000E2DE90917100911119C0A92D9920B1F0BD
:10064000A1509A2E99F4011108C0919A53DD022D00
:1006500082E490E008DE622C09C0021107C0919884
:1006600031DD00E086E390E0FEDD612CC0916400A6
:10067000C730C1F168F4C43059F128F4C230F1F048
:10068000C33011F111C0C53031F1C63039F10CC0A1
:10069000CA30B9F128F4C83051F1C93069F104C049
:1006A000CB3041F0CF3F99F1C49ABC9AC39AA5DDF3
:1006B00088E8B0DDA7DD42E040936400CC2039F14A
:1006C000C12C9BDD53E021C080E4A4DD54E01DC0BB
:1006D00099DD55E01AC091DD56E017C080EC9ADD37
:1006E00057E013C08091660095DD58E00EC0809100
:1006F000670090DD59E009C0809168008BDD5AE009
:1007000004C08091690086DD5BE05093640060B3B3
:10071000607187E790E0CADD813041F466E0B62E73
:10072000011103C0A8DD1CDE01C0A8DD60B360724A
:1007300085E790E0BBDD813041F456E0A52E011144
:1007400003C099DD58DE01C099DD60B3647083E7B2
:1007500090E0ACDD813041F4011105C08CDDCADCD4
:10076000D094B0DC01C08ADD60B3687081E790E0AE
:100770009DDD813019F44AE0942EC1CE823009F01B
:10078000BECE992009F4BBCE011118C074DDB2DCD5
:10079000811008C05BDD822C35E1432E26DD10E39D
:1007A00022DD0AC0821007C051DD82E0882E98E069
:1007B000392E1DDD01C053DD85DCA1CE5FDD9FCE6E
:0807C00021E01895F894FFCF29
:00000001FF
