:1000000044C051C050C04FC0F1C34DC04CC04BC0E4
:100010004AC049C048C047C046C045C044C043C0AC
:1000200042C041C040C03F065B4F666D7D077F6F99
:10003000024A01024201026401000000026401025E
:100040004201024A01000000024101000000026476
:1000500003024203024A030242030237030242023E
:10006000000001000003026403024203024A03028B
:100070004203023103024202000001000000033E7D
:100080000102FC01027E0100000011241FBECFED21
:10009000CDBF20E0A0E6B0E001C01D92A937B207B5
:1000A000E1F7EFD1A5C3ACCF90E0FC01E559FF4FDC
:1000B0002082FC01E05AFF4F8A599F4FDC018C914E
:1000C00080830895DD2021F080E0EEDF81E003C031
:1000D00082E0EADF83E0E8CF90E0FC01EA59FF4FDD
:1000E0003081311106C0805A9F4FDC018C91C22CA7
:1000F00080830895DD2041F010926B0080E0ECDFFA
:1001000010926C0081E007C010926D0082E0E4DF85
:1001100010926E0083E0E0CFE62FF0E0EA5DFF4F43
:10012000E49160E0411160E8E62BC22CA82FB0E01A
:10013000AA59BF4FEC930895FF92CF93DF93D82F26
:10014000F62EC42D642D62956F7040E0E5DF6C2FB4
:100150006F704F2D81E08D0FDF91CF91FF90DCCF3D
:10016000FF92CF93DF93D82FF62EC12F612F629588
:100170006F7040E0D1DF6C2F6F704F2D81E08D0FDD
:10018000DF91CF91FF90C8CFCF93023051F1C32DB3
:10019000332089F0882329F1632D62956F7040E048
:1001A00080E0BADF6C2F6F7041E081E0B5DF60E086
:1001B00082E0CF91C1CF442049F0882391F061E0E3
:1001C00080E0BADF60E082E0CF91CACF61E080E0FA
:1001D000C7DFC22C10926800652D40E083E0CF910C
:1001E0009BCFCF91089581E0CFCF812F193511F4A6
:1001F00010E008C0912F9F70993011F4895F01C001
:100200008F5F182FF0DF80E0089582E0BDCF842D4E
:10021000893511F4412C08C0942D9F70993011F448
:10022000895F01C08F5F482EF0DF80E0089583E092
:10023000ABCF60DF832D3320B9F0DD2099F083321E
:1002400011F4312C08C0932D9F70993011F4895FFF
:1002500001C08F5F382EEBDF311023C0332433947D
:10026000E6DF1FC0D4DF1DC0442059F0DD2039F087
:10027000CEDF411016C044244394C7DF12C0B5DF5F
:1002800010C0DD2031F0B1DF11110BC011E0ABDF88
:1002900008C0352D512C393011F03F5F532E80E0CE
:1002A00073DF10CF81E08A95F1F70895C49AC39A5D
:1002B000F9DFC4980895C398F5DFC498F3DFC39AB3
:1002C000F1DFC49A0895CF93DF93D82FC8E0C39885
:1002D000D0FF02C0C49A01C0C498E4DFC39AE2DF31
:1002E000D695C150A1F7C398BC98C49ADBDFDADF7A
:1002F000C39AD8DFC398BC9ADF91CF910895CF936A
:10030000832D311004C083E2382EC22D08C0932DF6
:100310009F7011F0815001C08750382EC0E087DFF8
:100320008C2FCF910895CF93C82F842D411007C0F3
:1003300089E5482ECC2359F0E2DFC82F08C0942D60
:100340009F7011F0815001C08750482EC0E05DDFE2
:100350008C2FCF910895CF93C82F812F111107C0F3
:1003600019E5CC2361F081E0DEDFC82F08C0912FB2
:100370009F7011F0815001C08750182FC0E033DF0B
:100380008C2FCF910895B6DE332061F0DD2039F057
:10039000B6DF311028C033E2332E49DF24C080E0BD
:1003A000C2DF21C0442061F080E0DD2039F0BBDFF6
:1003B000411019C099E5492E28DF15C0CCDF13C0C4
:1003C000DD2039F080E0C7DF11110DC019E50BDF2A
:1003D0000AC0852D511003C089E0582E02C08150FB
:1003E000582E80E0D1DE6ECE512C10E0412C312C05
:1003F00080E0CADEF8DE09DF1ACFF6DF812C10E1DB
:10040000F2CE13BE03979093700080936F00722C0E
:1004100008950230B9F488E490E0F3DF10926B00A5
:1004200080E05ADE10926C0081E056DE10926D0082
:1004300082E052DE10926E0083E04EDE00E0D12CAE
:10044000DCDF40CE0895FC018081882381F06623A3
:1004500011F03FEF04C03181332321F0315031835B
:1004600080E0089510825FEF518381E00895662354
:1004700081F331813111F2CF20824FEF418382E04D
:10048000089522242394312C412C512C612C712C61
:10049000812C912CA12CB12CC22CD12C00E010E08D
:1004A00020E088E199E20FB6F894A89581BD0FBECF
:1004B00091BD899AB89ABA9ABB9AB998C19A889804
:1004C000909A8E98969A8C98949A209277003FEF03
:1004D000309378008D98959A20927500309376002D
:1004E0008A98929A20927300309374008B98939A12
:1004F000209271003093720046ED53E35BBD4ABD1C
:1005000059B7506459BF6EB56A606EBD919875DF7A
:10051000D9DD8EE790E075DF7894A895222309F461
:10052000B3C020E0772D7720F9F07150772EE1F4F9
:10053000A0916F00B0917000ED012396D0937000F0
:10054000C0936F00FD013596E4917E2EE11102C04B
:1005500013BE0AC0FE01D4911496FD01B49112BEDF
:10056000F2E4F0BFB6BFD3BFD0E0C0E0F0906A00C5
:10057000FE01E559FF4F8081882379F0FF2019F0B3
:100580008C2FAADD0AC0FE01EA59FF4F9081DE01DF
:10059000A05ABF4F9C93C22C10822196C430D10523
:1005A00029F7F094F0926A00662061F1352D511020
:1005B00006C079E0572E81E0CEDEC82F03C031504F
:1005C000532EC0E080E0E0DDCC23E1F00DDF612CB4
:1005D00091988EE490E015DF02E0C22C4FE3409347
:1005E00066005CE55093670064E56093680079E716
:1005F0007093690080E058DD81E056DD82E054DDD3
:1006000083E052DDD0916500BD2FB095B0936500B9
:10061000D32111F0C09A01C0C098F0917700F11178
:1006200009C08B2DBB2019F08150B82E03C00111D9
:1006300001C0A9DEF0907500F11009C0EA2DAA20D2
:1006400019F0E150AE2E03C0011101C0F2DD90910E
:100650007100911119C0A92D9920B1F0A1509A2EC5
:1006600099F4011108C0919A45DD022D8CE390E0C8
:10067000C8DE622C09C0021107C0919823DD00E09A
:1006800080E390E0BEDE612CC0916400C730C1F110
:1006900068F4C43059F128F4C230F1F0C33011F1DC
:1006A00011C0C53031F1C63039F10CC0CA30B9F1D2
:1006B00028F4C83051F1C93069F104C0CB3041F0A1
:1006C000CF3F99F1C49ABC9AC39AF0DD88E8FBDD6C
:1006D000F2DD42E040936400CC2039F1C12CE6DD2C
:1006E00053E021C080E4EFDD54E01DC0E4DD55E0BF
:1006F0001AC0DCDD56E017C080ECE5DD57E013C022
:1007000080916600E0DD58E00EC080916700DBDD7F
:1007100059E009C080916800D6DD5AE004C080919C
:100720006900D1DD5BE05093640060B3607187E7DE
:1007300090E089DE813051F466E0B62E011105C0EB
:1007400088E490E05EDE1FDE01C063DE60B36072AD
:1007500085E790E078DE813051F456E0A52E011156
:1007600005C088E490E04DDE64DD01C052DE60B378
:10077000647083E790E067DE813051F4011107C0B7
:1007800088E490E03EDEB6DCD0949CDC01C041DE23
:1007900060B3687081E790E056DE813019F44AE07A
:1007A000942EBBCE823009F0B8CE992009F4B5CE94
:1007B00001111AC088E490E024DE9CDC811008C09E
:1007C00013DE822C35E1432E20DD10E30CDD0AC060
:1007D000821007C009DE82E0882E98E0392E27DDDE
:1007E00001C00BDE6FDC99CE14DE97CE21E01895A8
:0407F000F894FFCFAB
:00000001FF
