:1000000044C051C050C04FC0D6C34DC04CC04BC0FF
:100010004AC049C048C047C046C045C044C043C0AC
:1000200042C041C040C03F065B4F666D7D077F6F99
:10003000024101000000024A010242010264010083
:100040000000026401024201024A01000000026451
:1000500003024203024A030242030237030242023E
:10006000000001000003026403024203024A03028B
:100070004203023103024202000001000000033E7D
:100080000102FC01027E0100000011241FBECFED21
:10009000CDBF20E0A0E6B0E001C01D92A937B207B5
:1000A000E1F7DED18AC3ACCF90E0FC01EA59FF4F03
:1000B0003081311106C0805A9F4FDC018C91C22CD7
:1000C00080830895DD2041F010926B0080E0ECDF2A
:1000D00010926C0081E007C010926D0082E0E4DFB6
:1000E00010926E0083E0E0CF90E0FC01E559FF4FF5
:1000F0002082FC01E05AFF4F8A599F4FDC018C910E
:1001000080830895DD2021F080E0EEDF81E003C0F0
:1001100082E0EADF83E0E8CFE62FF0E0EA5DFF4F20
:10012000E49160E0411160E8E62BC22CA82FB0E01A
:10013000AA59BF4FEC930895FF92CF93DF93C82F36
:10014000F62ED42D642D62956F7040E0E5DF6D2FA3
:100150006F704F2D81E08C0FDF91CF91FF90DCCF3E
:10016000FF92CF93DF93C82FF62ED12F612F629588
:100170006F7040E0D1DF6D2F6F704F2D81E08C0FDD
:10018000DF91CF91FF90C8CFCF93023051F1C32DB3
:10019000332089F0882329F1632D62956F7040E048
:1001A00080E0BADF6C2F6F7041E081E0B5DF60E086
:1001B00082E0CF91C1CF442049F0882391F061E0E3
:1001C00080E0BADF60E082E0CF91CACF61E080E0FA
:1001D000C7DFC22C10926800652D40E083E0CF910C
:1001E0009BCFCF91089581E0CFCF82E0CDCF83E048
:1001F000CBCF81E08A95F1F70895C49AC39AF9DFCD
:10020000C4980895C398F5DFC498F3DFC39AF1DF6B
:10021000C49A0895CF93DF93C82FD8E0C398C0FF46
:1002200002C0C49A01C0C498E4DFC39AE2DFC69555
:10023000D150A1F7C398BC98C49ADBDFDADFC39A28
:10024000D8DFC398BC9ADF91CF910895512C10E06C
:10025000412C312C80E098DFC6DFC7DFC8CFF6DF46
:10026000812C10E1C0CF13BE039790937000809350
:100270006F00722C089580E390E0F5CF0230A9F46E
:10028000FADF10926B0080E00FDF10926C0081E0CB
:100290000BDF10926D0082E007DF10926E0083E0AA
:1002A00003DF00E0D12CDBDF2DCF0895FC0180813E
:1002B000882381F0662311F03FEF04C0318133239E
:1002C00021F03150318380E0089510824FEF418357
:1002D00081E00895662381F39181992319F091506B
:1002E0009183089520828FEF818382E00895982F73
:1002F0009F7011F08150089587500895CF93832DFA
:10030000311004C083E2382EC22D03C0F0DF382E36
:10031000C0E06DDF8C2FCF910895CF93C82F842D2F
:10032000411007C089E5482ECC2331F0E7DFC82F04
:1003300003C0DDDF482EC0E058DF8C2FCF91089539
:10034000CF93C82F812F111107C019E5CC2339F0A5
:1003500081E0E3DFC82F03C0CADF182FC0E043DF0E
:100360008C2FCF910895AEDE332061F0DD2039F07F
:10037000C5DF311028C033E2332E39DF24C080E0DE
:10038000CCDF21C0442061F080E0DD2039F0C5DF02
:10039000411019C099E5492E28DF15C0D1DF13C0DF
:1003A000DD2039F080E0CCDF11110DC019E51BDF35
:1003B0000AC0852D511003C089E0582E02C081501B
:1003C000582E80E0E1DE9ECE982F9F70993011F478
:1003D000895F08958F5F0895812F10E0893511F0AE
:1003E000F3DF182F00DF80E00895842D412C89353C
:1003F00011F0EADF482EF9DE80E0089563DE832DF8
:10040000332081F0DD2061F0312C833211F0DCDF0C
:10041000382EEDDE311023C033243394E8DE1FC0C4
:10042000E4DF1DC0442059F0DD2039F0DEDF41104B
:1004300016C044244394D9DE12C0CEDF10C0DD20A4
:1004400031F0CADF11110BC011E0CDDE08C0852DDF
:10045000512C893011F08F5F582E80E095DE52CEFE
:1004600022242394312C412C512C612C712C812C71
:10047000912CA12CB12CC22CD12C00E010E020E05A
:1004800088E199E20FB6F894A89581BD0FBE91BDA1
:10049000899AB89ABA9ABB9AB998C19ABD98C59ADE
:1004A000BE98C69ABF98C79A8898909A8E98969A3E
:1004B0008C98949A209277004FEF409378008D9813
:1004C000959A20927500409376008A98929A20928D
:1004D0007300409374008B98939A2092710040931C
:1004E000720066ED73E37BBD6ABD59B7506459BFB6
:1004F0007EB57A607EBD9198B2DE04DE8EE790E034
:10050000B2DE7894A895222309F4B9C020E0A72D83
:100510007720F9F0A1507A2EE1F4C0916F00D091CC
:100520007000CE0103969093700080936F00FE01DF
:100530003596E4917E2EE11102C013BE0AC0FC0183
:10054000B4912496FE01D49112BEF2E4F0BFD6BF5E
:10055000B3BF30916A00ABE6B0E090E080E0422D9E
:100560006D916623A9F0FC01EA59FF4F50813323B6
:1005700049F051110DC0EC01C05ADF4F7881C42EF3
:10058000708306C0EC01C05ADF4F5883C42E10821E
:1005900001968430910521F7309530936A006620EA
:1005A00061F1952D511006C079E0572E81E0C8DE2B
:1005B000D82F03C09150592ED0E080E0E5DDDD2337
:1005C000E1F044DE612C91988EE490E04CDE02E094
:1005D000C22CBFE3B0936600FCE5F093670034E5FE
:1005E00030936800A9E7A093690080E07DDD81E099
:1005F0007BDD82E079DD83E077DD40916500642F6B
:10060000609560936500432111F0C09A01C0C098C5
:10061000E0917700E11109C05B2DBB2019F051502A
:10062000B52E03C0011101C09EDEC0917500C1113D
:1006300009C07A2DAA2019F07150A72E03C001110C
:1006400001C0DCDE90917100911119C0D92D992063
:10065000B1F0D1509D2E99F4011108C0919A32DD6C
:10066000022D82E490E0FFDD622C09C0021107C078
:10067000919848DD00E086E390E0F5DD612CE091A3
:100680006400EC3048F4E23060F1E350E93098F572
:10069000F0E0E152FC4F0994EF3FA1F122C080E469
:1006A000B9DDF4E02DC0AEDDF5E02AC0A6DDF6E050
:1006B00027C080ECAFDDF7E023C080916600AADDA3
:1006C000F8E01EC080916700A5DDF9E019C08091B7
:1006D0006800A0DDFAE014C0809169009BDDFBE0BA
:1006E0000FC0C49ABC9AC39A88DD88E893DD8ADD7E
:1006F000B2E0B0936400CC2029F0C12C7EDDF3E0A1
:10070000F093640060B3607187E790E0CFDD8130E3
:1007100041F466E0B62E011103C0ADDD24DE01C058
:10072000ADDD60B3607285E790E0C0DD813041F4FB
:1007300056E0A52E011103C09EDD60DE01C09EDDE6
:1007400060B3647083E790E0B1DD813041F4011162
:1007500005C091DDB7DCD094D5DC01C08FDD60B37E
:10076000687081E790E0A2DD813019F44AE0942EB0
:10077000C9CE823009F0C6CE992009F4C3CE01114A
:1007800018C079DD9FDC811008C060DD822C35E166
:10079000432E2BDD10E327DD0AC0821007C056DD93
:1007A00082E0882E98E0392E22DD01C058DDAADCD7
:1007B000A9CE64DDA7CE21E01895F894FFCF6FCFC6
:1007C00072CF74CF76CF79CF7DCF81CF85CF8FCFCA
:00000001FF
