:1000000044C051C050C04FC0C2C34DC04CC04BC013
:100010004AC049C048C047C046C045C044C043C0AC
:1000200042C041C040C03F065B4F666D7D077F6F99
:10003000024A01024201026401000000026401025E
:100040004201024A01000000024101000000026476
:1000500003024203024A030242030237030242023E
:10006000000001000003026403024203024A03028B
:100070004203023103024202000001000000033E7D
:100080000102FC01027E0100000011241FBECFED21
:10009000CDBF20E0A0E6B0E001C01D92A937B207B5
:1000A000E1F7CDD176C3ACCF90E0FC01E559FF4F2D
:1000B0002082FC01E05AFF4F8A599F4FDC018C914E
:1000C00080830895DD2021F080E0EEDF81E003C031
:1000D00082E0EADF83E0E8CF90E0FC01EA59FF4FDD
:1000E0003081311106C0805A9F4FDC018C91C22CA7
:1000F00080830895DD2041F010926B0080E0ECDFFA
:1001000010926C0081E007C010926D0082E0E4DF85
:1001100010926E0083E0E0CFE62FF0E0EA5DFF4F43
:10012000E49160E0411160E8E62BC22CA82FB0E01A
:10013000AA59BF4FEC930895FF92CF93DF93D82F26
:10014000F62EC42D642D62956F7040E0E5DF6C2FB4
:100150006F704F2D81E08D0FDF91CF91FF90DCCF3D
:10016000FF92CF93DF93D82FF62EC12F612F629588
:100170006F7040E0D1DF6C2F6F704F2D81E08D0FDD
:10018000DF91CF91FF90C8CFCF93023051F1C32DB3
:10019000332089F0882329F1632D62956F7040E048
:1001A00080E0BADF6C2F6F7041E081E0B5DF60E086
:1001B00082E0CF91C1CF442049F0882391F061E0E3
:1001C00080E0BADF60E082E0CF91CACF61E080E0FA
:1001D000C7DFC22C10926800652D40E083E0CF910C
:1001E0009BCFCF910895812F193511F410E008C0ED
:1001F000912F9F70993011F4895F01C08F5F182F84
:1002000081E0C2DF80E00895842D893511F4412C0E
:1002100008C0942D9F70993011F4895F01C08F5FE1
:10022000482E82E0B1DF80E0089564DF832D332023
:1002300081F0DD2091F0833211F4312C08C0932D30
:100240009F70993011F4895F01C08F5F382E83E071
:1002500011C0442021F0DD2021F0D6DF0CC0DD20CC
:1002600011F0C1DF08C0352D512C393011F03F5F3E
:10027000532E80E089DF26CF81E08A95F1F708953B
:10028000C49AC39AF9DFC4980895C398F5DFC49857
:10029000F3DFC39AF1DFC49A0895CF93DF93D82F89
:1002A000C8E0C398D0FF02C0C49A01C0C498E4DF7C
:1002B000C39AE2DFD695C150A1F7C398BC98C49AFF
:1002C000DBDFDADFC39AD8DFC398BC9ADF91CF9126
:1002D0000895CF93832D311004C083E2382EC22DB0
:1002E00008C0932D9F7011F0815001C08750382EA7
:1002F000C0E083E049DF8C2FCF910895CF93C82FC2
:10030000842D411007C089E5482ECC2359F0E1DF48
:10031000C82F08C0942D9F7011F0815001C08750E4
:10032000482EC0E082E030DF8C2FCF910895CF932C
:10033000C82F812F111107C019E5CC2361F081E08E
:10034000DDDFC82F08C0912F9F7011F0815001C0D0
:100350008750182FC0E081E017DF8C2FCF910895D0
:10036000C9DE332021F0DD2031F0B3DF16C0442098
:1003700029F0DD2029F080E0C1DF0FC0DD2019F079
:1003800080E0D5DF0AC0852D511003C089E0582ECA
:1003900002C08150582E80E0F7DE94CE512C10E040
:1003A000412C312C80E0F0DE81E0EEDE82E0ECDEFC
:1003B00083E0EACEF3DF812C10E181E0E5CE13BECD
:1003C00003979093700080936F00722C0895023011
:1003D000B9F488E490E0F3DF10926B0080E07CDEFB
:1003E00010926C0081E078DE10926D0082E074DE85
:1003F00010926E0083E070DE00E0D12CDBDF62CE75
:100400000895FC018081882381F0662311F03FEF7D
:1004100004C03181332321F03150318380E00895CD
:1004200010825FEF518381E00895662381F331816B
:100430003111F2CF20824FEF418382E008952224D0
:100440002394312C412C512C612C712C812C912C1A
:10045000A12CB12CC22CD12C00E010E020E0899A14
:10046000B89ABA9ABB9A8C98949A209277008FEF98
:10047000809378008D98959A2092750080937600ED
:100480008A98929A20927300809374008B98939A22
:10049000209271008093720046ED53E35BBD4ABD2C
:1004A00039B7306439BF5EB55A605EBD919882DF5E
:1004B00009DE8EE790E083DF7894222309F4B3C04D
:1004C00020E0672D7720F9F06150762EE1F4A091BD
:1004D0006F00B0917000ED012396D0937000C0932F
:1004E0006F00FD013596E4917E2EE11102C013BE2E
:1004F0000AC0FE01F4901496FD01749112BEB2E49C
:10050000B0BF76BFF3BED0E0C0E0F0906A00FE015D
:10051000E559FF4FF081FF2379F0FF2019F08C2F70
:10052000DBDD0AC0FE01EA59FF4F9081DE01A05ACF
:10053000BF4F9C93C22C10822196C430D10529F75D
:10054000F094F0926A00662061F1D52D511006C03A
:1005500079E0572E81E0EBDEC82F03C0D1505D2E2D
:10056000C0E080E011DECC23E1F018DF612C91982F
:100570008EE490E024DF02E0C22C8FE380936600DB
:100580004CE54093670034E53093680059E7509399
:10059000690080E089DD81E087DD82E085DD83E040
:1005A00083DD60916500762F7095709365006321FF
:1005B00011F0C09A01C0C098B0917700B11109C084
:1005C000FB2DBB2019F0F150BF2E03C0011101C05B
:1005D000C7DEF0907500F11009C0EA2DAA2019F0CD
:1005E000E150AE2E03C0011101C01FDE90917100D9
:1005F000911119C0A92D9920B1F0A1509A2E99F40A
:10060000011108C0919A76DD022D8CE390E0D7DECF
:10061000622C09C0021107C0919854DD00E080E30C
:1006200090E0CDDE612CC0916400C730C1F168F468
:10063000C43059F128F4C230F1F0C33011F111C0C7
:10064000C53031F1C63039F10CC0CA30B9F128F4E7
:10065000C83051F1C93069F104C0CB3041F0CF3F0F
:1006600099F1C49ABC9AC39A0BDE88E816DE0DDEB7
:1006700082E080936400CC2039F1C12C01DE43E09C
:1006800021C080E40ADE44E01DC0FFDD45E01AC061
:10069000F7DD46E017C080EC00DE47E013C0809134
:1006A0006600FBDD48E00EC080916700F6DD49E0A2
:1006B00009C080916800F1DD4AE004C080916900C2
:1006C000ECDD4BE04093640060B3607187E790E03D
:1006D00098DE813051F466E0B62E011105C088E441
:1006E00090E06DDE3DDE01C072DE60B3607285E7D2
:1006F00090E087DE813051F456E0A52E011105C04F
:1007000088E490E05CDE91DD01C061DE60B364707E
:1007100083E790E076DE813051F4011107C088E470
:1007200090E04DDEE7DCD094CDDC01C050DE60B35C
:10073000687081E790E065DE813019F44AE0942E1C
:10074000BCCE823009F0B9CE992009F4B6CE0111A1
:100750001CC088E490E033DECDDC811009C01EDED1
:10076000822C35E1432E82E00FDD10E381E008C0EA
:10077000821008C013DE82E0882E98E0392E83E0D4
:1007800003DD01C017DE9EDC98CE21DE96CE21E08F
:060790001895F894FFCF5C
:00000001FF
