:1000000044C051C050C04FC0C8C34DC04CC04BC00D
:100010004AC049C048C047C046C045C044C043C0AC
:1000200042C041C040C03F065B4F666D7D077F6F99
:10003000024A01024201026401000000026401025E
:100040004201024A01000000024101000000026476
:1000500003024203024A030242030237030242023E
:10006000000001000003026403024203024A03028B
:100070004203023103024202000001000000033E7D
:100080000102FC01027E0100000011241FBECFED21
:10009000CDBF20E0A0E6B0E001C01D92A937B207B5
:1000A000E1F7E0D17CC3ACCF90E0FC01E559FF4F14
:1000B0002082FC01E05AFF4F8A599F4FDC018C914E
:1000C00080830895DD2021F080E0EEDF81E003C031
:1000D00082E0EADF83E0E8CF90E0FC01EA59FF4FDD
:1000E0003081311106C0805A9F4FDC018C91C22CA7
:1000F00080830895DD2041F010926B0080E0ECDFFA
:1001000010926C0081E007C010926D0082E0E4DF85
:1001100010926E0083E0E0CFE62FF0E0EA5DFF4F43
:10012000E49160E0411160E8E62BC22CA82FB0E01A
:10013000AA59BF4FEC930895FF92CF93DF93D82F26
:10014000F62EC42D642D62956F7040E0E5DF6C2FB4
:100150006F704F2D81E08D0FDF91CF91FF90DCCF3D
:10016000FF92CF93DF93D82FF62EC12F612F629588
:100170006F7040E0D1DF6C2F6F704F2D81E08D0FDD
:10018000DF91CF91FF90C8CFCF93023051F1C32DB3
:10019000332089F0882329F1632D62956F7040E048
:1001A00080E0BADF6C2F6F7041E081E0B5DF60E086
:1001B00082E0CF91C1CF442049F0882391F061E0E3
:1001C00080E0BADF60E082E0CF91CACF61E080E0FA
:1001D000C7DFC22C10926800652D40E083E0CF910C
:1001E0009BCFCF91089581E08A95F1F70895C49A45
:1001F000C39AF9DFC4980895C398F5DFC498F3DF74
:10020000C39AF1DFC49A0895CF93DF93D82FC8E043
:10021000C398D0FF02C0C49A01C0C498E4DFC39A57
:10022000E2DFD695C150A1F7C398BC98C49ADBDF32
:10023000DADFC39AD8DFC398BC9ADF91CF910895D3
:10024000CF93832D311004C083E2382EC22D08C015
:10025000932D9F7011F0815001C08750382EC0E05F
:1002600083E092DF8C2FCF910895CF93842D41109E
:1002700005C089E5482EE4DFC82F08C0942D9F7083
:1002800011F0815001C08750482EC0E082E07CDF31
:100290008C2FCF910895CF93812F111104C019E5B0
:1002A000E4DFC82F08C0912F9F7011F0815001C06A
:1002B0008750182FC0E081E067DF8C2FCF91089521
:1002C000CF93852D511005C089E0582EE4DFC82F4B
:1002D00003C08150582EC0E080E056DF8C2FCF91B4
:1002E000089508DF332021F0DD2031F0A9DF0BC0B5
:1002F000442031F0DD2011F0B8DF05C0CCDF03C0B1
:10030000D110FCCFDDDFDECECF93832D833219F405
:10031000312CC22D09C0932D9F70993011F4895F43
:1003200001C08F5F382EC0E083E02EDF8C2FCF918D
:100330000895CF93842D893521F4412CE5DFC82F12
:1003400009C0942D9F70993011F4895F01C08F5FAF
:10035000482EC0E082E018DF8C2FCF910895CF9314
:10036000812F193521F410E0E4DFC82F09C0912F47
:100370009F70993011F4895F01C08F5F182FC0E022
:1003800081E002DF8C2FCF910895B4DE332021F07D
:10039000DD2031F0B9DF14C0442021F0DD2021F050
:1003A000C8DF0EC0DD2011F0DADF0AC0852D8930EC
:1003B00019F4512CD4DF02C08F5F582E80E0E4DEA8
:1003C00081CE512C10E0412C312C80E0DDDE81E02B
:1003D000DBDE82E0D9DE83E0D7CEF3DF812C10E1D3
:1003E00081E0D2CE13BE03979093700080936F008C
:1003F000722C08950230B9F488E490E0F3DF109293
:100400006B0080E069DE10926C0081E065DE109286
:100410006D0082E061DE10926E0083E05DDE00E040
:10042000D12CDBDF4FCE0895FC018081882381F041
:10043000662311F03FEF04C03181332321F03150A6
:10044000318380E0089510825FEF518381E0089549
:10045000662381F331813111F2CF20824FEF418346
:1004600082E0089522242394312C412C512C612CBC
:10047000712C812C912CA12CB12CC22CD12C00E000
:1004800010E020E0899AB89ABA9ABB9A8C98949A0C
:10049000209277008FEF809378008D98959A209224
:1004A0007500809376008A98929A209273008093C8
:1004B00074008B98939A209271008093720046ED9D
:1004C00053E35BBD4ABD39B7306439BF5EB55A608E
:1004D0005EBD919882DFF6DD8EE790E083DF789451
:1004E000222309F4A6C020E0672D7720F9F061509F
:1004F000762EE1F4A0916F00B0917000ED0123968B
:10050000D0937000C0936F00FD013596E4917E2E6C
:10051000E11102C013BE0AC0FE01F4901496FD0161
:10052000749112BEB2E4B0BF76BFF3BED0E0C0E0BB
:10053000F0906A00FE01E559FF4FF081FF2379F04A
:10054000FF2019F08C2FC8DD0AC0FE01EA59FF4FC9
:100550009081DE01A05ABF4F9C93C22C108221963D
:10056000C430D10529F7F094F0926A006620F9F0C2
:10057000A7DE8823E1F025DF612C91988EE490E0DE
:1005800031DF02E0C22CDFE3D09366008CE580937C
:10059000670044E54093680039E73093690080E0E4
:1005A00083DD81E081DD82E07FDD83E07DDD5091D0
:1005B0006500652F609560936500532111F0C09A26
:1005C00001C0C098C0917700C11109C07B2DBB202C
:1005D00019F07150B72E03C0011101C082DEB09135
:1005E0007500B11109C0FA2DAA2019F0F150AF2EF3
:1005F00003C0011101C0C9DEF0907100F11019C0F3
:10060000E92D9920B1F0E1509E2E99F4011108C016
:10061000919A70DD022D8CE390E0E4DE622C09C03B
:10062000021107C091984EDD00E080E390E0DADE31
:10063000612CA0916400A730C1F168F4A43059F195
:1006400028F4A230F1F0A33011F111C0A53031F13E
:10065000A63039F10CC0AA30B9F128F4A83051F114
:10066000A93069F104C0AB3041F0AF3F99F1C49AB1
:10067000BC9AC39ABCDD88E8C7DDBEDDD2E0D0936A
:100680006400CC2039F1C12CB2DD83E021C080E4CC
:10069000BBDD84E01DC0B0DD85E01AC0A8DD86E0CA
:1006A00017C080ECB1DD87E013C080916600ACDD3F
:1006B00088E00EC080916700A7DD89E009C08091C5
:1006C0006800A2DD8AE004C0809169009DDD8BE0B6
:1006D0008093640060B3607187E790E0A5DE8130AD
:1006E00051F466E0B62E011105C088E490E07ADE90
:1006F000F8DD01C07FDE60B3607285E790E094DED4
:10070000813051F456E0A52E011105C088E490E037
:1007100069DE3BDE01C06EDE60B3647083E790E0AB
:1007200083DE813051F4011107C088E490E05ADE85
:10073000E1DCD094C7DC01C05DDE60B3687081E7A6
:1007400090E072DE813019F44AE0942EC9CE8230F6
:1007500009F0C6CE992009F4C3CE01111CC088E46B
:1007600090E040DEC7DC811009C02BDE822C35E131
:10077000432E82E009DD10E381E008C0821008C04A
:1007800020DE82E0882E98E0392E83E0FDDC01C077
:1007900024DE98DCA5CE2EDEA3CE21E01895F894B9
:0207A000FFCF89
:00000001FF
