:1000000044C051C050C04FC0DBC34DC04CC04BC0FA
:100010004AC049C048C047C046C045C044C043C0AC
:1000200042C041C040C03F065B4F666D7D077F6F99
:10003000024101000000024A010242010264010083
:100040000000026401024201024A01000000026451
:1000500003024203024A030242030237030242023E
:10006000000001000003026403024203024A03028B
:100070004203023103024202000001000000033E7D
:100080000102FC01027E0100000011241FBECFED21
:10009000CDBF20E0A0E6B0E001C01D92A937B207B5
:1000A000E1F7DBD18FC3ACCF90E0FC01E559FF4F06
:1000B000D082FC01E05AFF4F8A599F4FDC018C919E
:1000C00080830895CC2021F080E0EEDF81E003C042
:1000D00082E0EADF83E0E8CF90E0FC01EA59FF4FDD
:1000E0003081311106C0805A9F4FDC018C91BD2CAC
:1000F00080830895CC2041F010926B0080E0ECDF0B
:1001000010926C0081E007C010926D0082E0E4DF85
:1001100010926E0083E0E0CFE62FF0E0EA5DFF4F43
:10012000E49160E0411160E8E62BBD2CA82FB0E01F
:10013000AA59BF4FEC930895FF92CF93DF93D82F26
:10014000F62EC32D632D62956F7040E0E5DF6C2FB6
:100150006F704F2D81E08D0FDF91CF91FF90DCCF3D
:10016000FF92CF93DF93D82FF62EC12F612F629588
:100170006F7040E0D1DF6C2F6F704F2D81E08D0FDD
:10018000DF91CF91FF90C8CFCF93023051F1C22DB4
:10019000222089F0882329F1622D62956F7040E05A
:1001A00080E0BADF6C2F6F7041E081E0B5DF60E086
:1001B00082E0CF91C1CF332049F0882391F061E0F4
:1001C00080E0BADF60E082E0CF91CACF61E080E0FA
:1001D000C7DFBD2C10926800642D40E083E0CF9112
:1001E0009BCFCF91089581E0CFCF82E0CDCF83E048
:1001F000CBCF81E08A95F1F70895C49AC39AF9DFCD
:10020000C4980895C398F5DFC498F3DFC39AF1DF6B
:10021000C49A0895CF93DF93D82FC8E0C398D0FF36
:1002200002C0C49A01C0C498E4DFC39AE2DFD69545
:10023000C150A1F7C398BC98C49ADBDFDADFC39A38
:10024000D8DFC398BC9ADF91CF910895412C10E07C
:10025000312C212C80E098DFC6DFC7DFC8CFF6DF66
:10026000712C10E1C0CF13BE039790937000809360
:100270006F006D2C089580E390E0F5CF0230A9F473
:10028000FADF10926B0080E027DF10926C0081E0B3
:1002900023DF10926D0082E01FDF10926E0083E07A
:1002A0001BDF00E0C12CDBDF0DCF0895FC01808156
:1002B000882381F0662311F03FEF04C0318133239E
:1002C00021F03150318380E0089510825FEF518337
:1002D00081E00895662381F331813111F2CFD0821C
:1002E0004FEF418382E00895982F9F7011F0815065
:1002F000089587500895CF93822D211004C083E282
:10030000282ECD2D03C0F0DF282EC0E070DF8C2F0B
:10031000CF910895CF93C82F832D311007C089E561
:10032000382ECC2331F0E7DFC82F03C0DDDF382EB5
:10033000C0E05BDF8C2FCF910895CF93C82F812F22
:10034000111107C019E5CC2339F081E0E3DFC82F94
:1003500003C0CADF182FC0E046DF8C2FCF9108956D
:10036000C9DE222061F0CC2039F0C5DF211028C081
:1003700033E2232E3CDF24C080E0CCDF21C03320D9
:1003800061F080E0CC2039F0C5DF311019C099E56B
:10039000392E2BDF15C0D1DF13C0CC2039F080E01F
:1003A000CCDF11110DC019E51EDF0AC0842D4110EC
:1003B00003C089E0482E02C08150482E80E0E4DE70
:1003C00081CE982F9F70993011F4895F08958F5FC7
:1003D0000895812F10E0893511F0F3DF182F03DF26
:1003E00080E00895832D312C893511F0EADF382E15
:1003F000FCDE80E008957EDE822D222081F0CC207C
:1004000061F0212C833211F0DCDF282EF0DE211088
:1004100023C022242394EBDE1FC0E4DF1DC0332061
:1004200059F0CC2039F0DEDF311016C0332433947C
:10043000DCDE12C0CEDF10C0CC2031F0CADF1111DB
:100440000BC011E0D0DE08C0842D412C893011F0A2
:100450008F5F482E80E098DE35CE212C312C412C48
:10046000512C612C712C812C912CA12CBD2CC12CD8
:10047000DD24D39400E010E020E088E199E20FB69B
:10048000F894A89581BD0FBE91BD899AB89ABA9A81
:10049000BB9AB998C19ABD98C59ABE98C69ABF989A
:1004A000C79A8898909A8E98969A8C98949AD09297
:1004B00077003FEF309378008D98959AD092750031
:1004C000309376008A98929AD09273003093740099
:1004D0008B98939AD09271003093720046ED53E35B
:1004E0005BBD4ABD59B7506459BF6EB56A606EBDF9
:1004F0009198B5DEE7DD8EE790E0B5DE7894A895BB
:10050000222309F4B3C020E0762D6620F9F0715063
:10051000672EE1F4A0916F00B0917000ED01239679
:10052000D0937000C0936F00FD013596E4916E2E5C
:10053000E11102C013BE0AC0FE01D4911496FD0160
:10054000B49112BEF2E4F0BFB6BFD3BFD0E0C0E0BA
:10055000F0906A00FE01E559FF4F8081882379F011
:10056000FF2019F08C2FB8DD0AC0FE01EA59FF4FB9
:100570009081DE01A05ABF4F9C93BD2C1082219622
:10058000C430D10529F7F094F0926A00552061F14A
:10059000342D411006C079E0472E81E0CEDEC82F11
:1005A00003C03150432EC0E080E0EEDDCC23E1F00B
:1005B0004DDE512C91988EE490E055DE02E0BD2C8A
:1005C0004FE3409366005CE55093670064E56093F9
:1005D000680079E77093690080E066DD81E064DDA2
:1005E00082E062DD83E060DDD0916500BD2FB095D3
:1005F000B0936500D22111F0C09A01C0C098F0916B
:100600007700F11109C08A2DAA2019F08150A82E77
:1006100003C0011101C0A4DEF0907500F11009C003
:10062000E92D992019F0E1509E2E03C0011101C05F
:10063000E2DE90917100911119C0A82D8820B1F0CF
:10064000A1508A2E99F4011108C0919A53DD0D2D05
:1006500082E490E008DE5D2C09C00D1107C091987E
:1006600031DD00E086E390E0FEDD512CC0916400B6
:10067000C730C1F168F4C43059F128F4C230F1F048
:10068000C33011F111C0C53031F1C63039F10CC0A1
:10069000CA30B9F128F4C83051F1C93069F104C049
:1006A000CB3041F0CF3F99F1C49ABC9AC39AA5DDF3
:1006B00088E8B0DDA7DD42E040936400BB2039F15B
:1006C000B12C9BDD53E021C080E4A4DD54E01DC0CB
:1006D00099DD55E01AC091DD56E017C080EC9ADD37
:1006E00057E013C08091660095DD58E00EC0809100
:1006F000670090DD59E009C0809168008BDD5AE009
:1007000004C08091690086DD5BE05093640060B3B3
:10071000607187E790E0CADD813041F466E0A62E83
:10072000011103C0A8DD1CDE01C0A8DD60B360724A
:1007300085E790E0BBDD813041F456E0952E011154
:1007400003C099DD58DE01C099DD60B3647083E7B2
:1007500090E0ACDD813041F4011105C08CDDCADCD4
:10076000C094B0DC01C08ADD60B3687081E790E0BE
:100770009DDD813019F44AE0842EC1CE823009F02B
:10078000BECE882009F4BBCE011118C074DDB2DCE6
:10079000711008C05BDD7D2C35E1332E26DD10E3C2
:1007A00022DD0AC07D1007C051DD82E0782E98E07E
:1007B000292E1DDD01C053DD85DCA1CE5FDD9FCE7E
:0807C00021E01895F894FFCF29
:00000001FF
