:1000000044C051C050C04FC0E2C34DC04CC04BC0F3
:100010004AC049C048C047C046C045C044C043C0AC
:1000200042C041C040C03F065B4F666D7D077F6F99
:10003000024A01024201026401000000026401025E
:100040004201024A01000000024101000000026476
:1000500003024203024A030242030237030242023E
:10006000000001000003026403024203024A03028B
:100070004203023103024202000001000000033E7D
:100080000102FC01027E0100000011241FBECFED21
:10009000CDBF20E0A0E6B0E001C01D92A937B207B5
:1000A000E1F7DAD196C3ACCF90E0FC01E559FF4F00
:1000B000D082FC01E05AFF4F8A599F4FDC018C919E
:1000C00080830895CC2021F080E0EEDF81E003C042
:1000D00082E0EADF83E0E8CF90E0FC01EA59FF4FDD
:1000E0003081311106C0805A9F4FDC018C91BD2CAC
:1000F00080830895CC2041F010926B0080E0ECDF0B
:1001000010926C0081E007C010926D0082E0E4DF85
:1001100010926E0083E0E0CFE62FF0E0EA5DFF4F43
:10012000E49160E0411160E8E62BBD2CA82FB0E01F
:10013000AA59BF4FEC930895FF92CF93DF93D82F26
:10014000F62EC32D632D62956F7040E0E5DF6C2FB6
:100150006F704F2D81E08D0FDF91CF91FF90DCCF3D
:10016000FF92CF93DF93D82FF62EC12F612F629588
:100170006F7040E0D1DF6C2F6F704F2D81E08D0FDD
:10018000DF91CF91FF90C8CFCF93023051F1C22DB4
:10019000222089F0882329F1622D62956F7040E05A
:1001A00080E0BADF6C2F6F7041E081E0B5DF60E086
:1001B00082E0CF91C1CF332049F0882391F061E0F4
:1001C00080E0BADF60E082E0CF91CACF61E080E0FA
:1001D000C7DFBD2C10926800642D40E083E0CF9112
:1001E0009BCFCF91089581E0CFCF82E0CDCF83E048
:1001F000CBCF81E08A95F1F70895C49AC39AF9DFCD
:10020000C4980895C398F5DFC498F3DFC39AF1DF6B
:10021000C49A0895CF93DF93D82FC8E0C398D0FF36
:1002200002C0C49A01C0C498E4DFC39AE2DFD69545
:10023000C150A1F7C398BC98C49ADBDFDADFC39A38
:10024000D8DFC398BC9ADF91CF910895412C10E07C
:10025000312C212C80E098DFC6DFC7DFC8CFF6DF66
:10026000712C10E1C0CF13BE039790937000809360
:100270006F006D2C08950230B9F488E490E0F3DF4C
:1002800010926B0080E028DF10926C0081E024DF88
:1002900010926D0082E020DF10926E0083E01CDF80
:1002A00000E0C12CDCDF0ECF0895FC0180818823A3
:1002B00081F0662311F03FEF04C03181332321F038
:1002C0003150318380E0089510825FEF518381E0E7
:1002D0000895662381F331813111F2CFD0824FEF3F
:1002E000418382E00895982F9F7011F08150089506
:1002F00087500895CF93822D211004C083E2282EC9
:10030000CD2D03C0F0DF282EC0E071DF8C2FCF9100
:100310000895CF93C82F832D311007C089E5382E5B
:10032000CC2331F0E7DFC82F03C0DDDF382EC0E07B
:100330005CDF8C2FCF910895CF93C82F812F11119F
:1003400007C019E5CC2339F081E0E3DFC82F03C0F3
:10035000CADF182FC0E047DF8C2FCF910895CADE87
:10036000222061F0CC2039F0C5DF211028C033E213
:10037000232E3DDF24C080E0CCDF21C0332061F09C
:1003800080E0CC2039F0C5DF311019C099E5392E55
:100390002CDF15C0D1DF13C0CC2039F080E0CCDFDA
:1003A00011110DC019E51FDF0AC0842D411003C0D3
:1003B00089E0482E02C08150482E80E0E5DE82CEE2
:1003C000982F9F70993011F4895F08958F5F089579
:1003D000812F10E0893511F0F3DF182F04DF80E062
:1003E0000895832D312C893511F0EADF382EFDDE9A
:1003F00080E008957FDE822D222081F0CC2061F004
:10040000212C833211F0DCDF282EF1DE211023C0F5
:1004100022242394ECDE1FC0E4DF1DC0332059F0FA
:10042000CC2039F0DEDF311016C033243394DDDE0A
:1004300012C0CEDF10C0CC2031F0CADF11110BC0CA
:1004400011E0D1DE08C0842D412C893011F08F5F7E
:10045000482E80E099DE36CE212C312C412C512CB7
:10046000612C712C812C912CA12CBD2CC12CDD2454
:10047000D39400E010E020E088E199E20FB6F89410
:10048000A89581BD0FBE91BD899AB89ABA9ABB9AB8
:10049000B998C19ABD98C59ABE98C69ABF98C79A8E
:1004A0008898909A8E98969A8C98949AD092770081
:1004B0003FEF309378008D98959AD09275003093E5
:1004C00076008A98929AD0927300309374008B9839
:1004D000939AD09271003093720046ED53E35BBD66
:1004E0004ABD59B7506459BF6EB56A606EBD9198E8
:1004F000B6DEE8DD8EE790E0B6DE7894A89522239C
:1005000009F4B3C020E0762D6620F9F07150672E13
:10051000E1F4A0916F00B0917000ED012396D093AB
:100520007000C0936F00FD013596E4916E2EE111CD
:1005300002C013BE0AC0FE01D4911496FD01B4910D
:1005400012BEF2E4F0BFB6BFD3BFD0E0C0E0F0907F
:100550006A00FE01E559FF4F8081882379F0FF2072
:1005600019F08C2FB9DD0AC0FE01EA59FF4F9081C6
:10057000DE01A05ABF4F9C93BD2C10822196C4303F
:10058000D10529F7F094F0926A00552061F1342DDD
:10059000411006C079E0472E81E0CEDEC82F03C0AF
:1005A0003150432EC0E080E0EFDDCC23E1F04EDEA1
:1005B000512C91988EE490E056DE02E0BD2C4FE382
:1005C000409366005CE55093670064E560936800C3
:1005D00079E77093690080E067DD81E065DD82E0A6
:1005E00063DD83E061DDD0916500BD2FB095B093F0
:1005F0006500D22111F0C09A01C0C098F091770037
:10060000F11109C08A2DAA2019F08150A82E03C02B
:10061000011101C0A4DEF0907500F11009C0E92DB0
:10062000992019F0E1509E2E03C0011101C0E2DEB5
:1006300090917100911119C0A82D8820B1F0A1509E
:100640008A2E99F4011108C0919A54DD0D2D8CE386
:1006500090E009DE5D2C09C00D1107C0919832DDD4
:1006600000E080E390E0FFDD512CC0916400C730D2
:10067000C1F168F4C43059F128F4C230F1F0C3304C
:1006800011F111C0C53031F1C63039F10CC0CA309A
:10069000B9F128F4C83051F1C93069F104C0CB3048
:1006A00041F0CF3F99F1C49ABC9AC39AA6DD88E87D
:1006B000B1DDA8DD42E040936400BB2039F1B12CEC
:1006C0009CDD53E021C080E4A5DD54E01DC09ADD2F
:1006D00055E01AC092DD56E017C080EC9BDD57E074
:1006E00013C08091660096DD58E00EC080916700CF
:1006F00091DD59E009C0809168008CDD5AE004C0AA
:100700008091690087DD5BE05093640060B36071A5
:1007100087E790E0CADD813051F466E0A62E011132
:1007200005C088E490E09FDD1ADE01C0A4DD60B35F
:10073000607285E790E0B9DD813051F456E0952E86
:10074000011105C088E490E08EDD54DE01C093DD28
:1007500060B3647083E790E0A8DD813051F401114B
:1007600007C088E490E07FDDC5DCC094ABDC01C04D
:1007700082DD60B3687081E790E097DD813019F425
:100780004AE0842EBBCE823009F0B8CE882009F42E
:10079000B5CE01111AC088E490E065DDABDC7110C4
:1007A00008C054DD7D2C35E1332E1FDD10E31BDD49
:1007B0000AC07D1007C04ADD82E0782E98E0292E1D
:1007C00016DD01C04CDD7EDC99CE55DD97CE21E0F3
:0607D0001895F894FFCF1C
:00000001FF
