:1000000044C051C050C04FC0E2C34DC04CC04BC0F3
:100010004AC049C048C047C046C045C044C043C0AC
:1000200042C041C040C03F065B4F666D7D077F6F99
:10003000024A01024201026401000000026401025E
:100040004201024A01000000024101000000026476
:1000500003024203024A030242030237030242023E
:10006000000001000003026403024203024A03028B
:100070004203023103024202000001000000033E7D
:100080000102FC01027E0100000011241FBECFED21
:10009000CDBF20E0A0E6B0E001C01D92A937B207B5
:1000A000E1F7EFD196C3ACCF90E0FC01E559FF4FEB
:1000B0002082FC01E05AFF4F8A599F4FDC018C914E
:1000C00080830895DD2021F080E0EEDF81E003C031
:1000D00082E0EADF83E0E8CF90E0FC01EA59FF4FDD
:1000E0003081311106C0805A9F4FDC018C91C22CA7
:1000F00080830895DD2041F010926B0080E0ECDFFA
:1001000010926C0081E007C010926D0082E0E4DF85
:1001100010926E0083E0E0CFE62FF0E0EA5DFF4F43
:10012000E49160E0411160E8E62BC22CA82FB0E01A
:10013000AA59BF4FEC930895FF92CF93DF93D82F26
:10014000F62EC42D642D62956F7040E0E5DF6C2FB4
:100150006F704F2D81E08D0FDF91CF91FF90DCCF3D
:10016000FF92CF93DF93D82FF62EC12F612F629588
:100170006F7040E0D1DF6C2F6F704F2D81E08D0FDD
:10018000DF91CF91FF90C8CFCF93023051F1C32DB3
:10019000332089F0882329F1632D62956F7040E048
:1001A00080E0BADF6C2F6F7041E081E0B5DF60E086
:1001B00082E0CF91C1CF442049F0882391F061E0E3
:1001C00080E0BADF60E082E0CF91CACF61E080E0FA
:1001D000C7DFC22C10926800652D40E083E0CF910C
:1001E0009BCFCF91089581E0CFCF812F193511F4A6
:1001F00010E008C0912F9F70993011F4895F01C001
:100200008F5F182FF0DF80E0089582E0BDCF842D4E
:10021000893511F4412C08C0942D9F70993011F448
:10022000895F01C08F5F482EF0DF80E0089583E092
:10023000ABCF60DF832D3320B9F0DD2099F083321E
:1002400011F4312C08C0932D9F70993011F4895FFF
:1002500001C08F5F382EEBDF311023C0332433947D
:10026000E6DF1FC0D4DF1DC0442059F0DD2039F087
:10027000CEDF411016C044244394C7DF12C0B5DF5F
:1002800010C0DD2031F0B1DF11110BC011E0ABDF88
:1002900008C0352D512C393011F03F5F532E80E0CE
:1002A00073DF10CF81E08A95F1F70895C49AC39A5D
:1002B000F9DFC4980895C398F5DFC498F3DFC39AB3
:1002C000F1DFC49A0895CF93DF93D82FC8E0C39885
:1002D000D0FF02C0C49A01C0C498E4DFC39AE2DF31
:1002E000D695C150A1F7C398BC98C49ADBDFDADF7A
:1002F000C39AD8DFC398BC9ADF91CF910895CF936A
:10030000832D311004C083E2382EC22D08C0932DF6
:100310009F7011F0815001C08750382EC0E087DFF8
:100320008C2FCF910895CF93C82F842D411007C0F3
:1003300089E5482ECC2359F0E2DFC82F08C0942D60
:100340009F7011F0815001C08750482EC0E05DDFE2
:100350008C2FCF910895CF93C82F812F111107C0F3
:1003600019E5CC2361F081E0DEDFC82F08C0912FB2
:100370009F7011F0815001C08750182FC0E033DF0B
:100380008C2FCF910895B6DE332061F0DD2039F057
:10039000B6DF311028C033E2332E49DF24C080E0BD
:1003A000C2DF21C0442061F080E0DD2039F0BBDFF6
:1003B000411019C099E5492E28DF15C0CCDF13C0C4
:1003C000DD2039F080E0C7DF11110DC019E50BDF2A
:1003D0000AC0852D511003C089E0582E02C08150FB
:1003E000582E80E0D1DE6ECE512C10E0412C312C05
:1003F00080E0CADEF8DE09DF1ACFF6DF812C10E1DB
:10040000F2CE13BE03979093700080936F00722C0E
:1004100008950230B9F488E490E0F3DF10926B00A5
:1004200080E05ADE10926C0081E056DE10926D0082
:1004300082E052DE10926E0083E04EDE00E0D12CAE
:10044000DCDF40CE0895FC018081882381F06623A3
:1004500011F03FEF04C03181332321F0315031835B
:1004600080E0089510825FEF518381E00895662354
:1004700081F331813111F2CF20824FEF418382E04D
:10048000089522242394312C412C512C612C712C61
:10049000812C912CA12CB12CC22CD12C00E010E08D
:1004A00020E0899AB89ABA9ABB9A8C98949A20922A
:1004B00077008FEF809378008D98959A2092750041
:1004C000809376008A98929A2092730080937400A9
:1004D0008B98939A209271008093720046ED53E3BB
:1004E0005BBD4ABD39B7306439BF5EB55A605EBD89
:1004F000919883DFE7DD8EE790E083DF7894222315
:1005000009F4B3C020E0672D7720F9F06150762E12
:10051000E1F4A0916F00B0917000ED012396D093AB
:100520007000C0936F00FD013596E4917E2EE111BD
:1005300002C013BE0AC0FE01F4901496FD0174912E
:1005400012BEB2E4B0BF76BFF3BED0E0C0E0F09020
:100550006A00FE01E559FF4FF081FF2379F0FF208B
:1005600019F08C2FB9DD0AC0FE01EA59FF4F9081C6
:10057000DE01A05ABF4F9C93C22C10822196C4303A
:10058000D10529F7F094F0926A00662061F1D52D2B
:10059000511006C079E0572E81E0DDDEC82F03C080
:1005A000D1505D2EC0E080E0EFDDCC23E1F01CDF18
:1005B000612C91988EE490E024DF02E0C22C8FE35E
:1005C000809366004CE54093670034E53093680003
:1005D00059E75093690080E067DD81E065DD82E0E6
:1005E00063DD83E061DD60916500762F7095709327
:1005F0006500632111F0C09A01C0C098B0917700E6
:10060000B11109C0FB2DBB2019F0F150BF2E03C062
:10061000011101C0B8DEF0907500F11009C0EA2D9B
:10062000AA2019F0E150AE2E03C0011101C001DE75
:1006300090917100911119C0A92D9920B1F0A1508C
:100640009A2E99F4011108C0919A54DD022D8CE381
:1006500090E0D7DE622C09C0021107C0919832DD0C
:1006600000E080E390E0CDDE612CC0916400C730F3
:10067000C1F168F4C43059F128F4C230F1F0C3304C
:1006800011F111C0C53031F1C63039F10CC0CA309A
:10069000B9F128F4C83051F1C93069F104C0CB3048
:1006A00041F0CF3F99F1C49ABC9AC39AFFDD88E824
:1006B0000ADE01DE82E080936400CC2039F1C12C97
:1006C000F5DD43E021C080E4FEDD44E01DC0F3DD44
:1006D00045E01AC0EBDD46E017C080ECF4DD47E0F2
:1006E00013C080916600EFDD48E00EC08091670086
:1006F000EADD49E009C080916800E5DD4AE004C018
:1007000080916900E0DD4BE04093640060B360716C
:1007100087E790E098DE813051F466E0B62E011153
:1007200005C088E490E06DDE2EDE01C072DE60B3AD
:10073000607285E790E087DE813051F456E0A52EA7
:10074000011105C088E490E05CDE73DD01C061DE6C
:1007500060B3647083E790E076DE813051F401117C
:1007600007C088E490E04DDEC5DCD094ABDC01C06E
:1007700050DE60B3687081E790E065DE813019F487
:100780004AE0942EBCCE823009F0B9CE992009F40B
:10079000B6CE01111AC088E490E033DEABDC8110E4
:1007A00008C022DE822C35E1432E2FDD10E31BDD55
:1007B0000AC0821007C018DE82E0882E98E0392E29
:1007C00036DD01C01ADE7EDC9ACE23DE98CE21E033
:0607D0001895F894FFCF1C
:00000001FF
