:1000000044C051C050C04FC0F7C34DC04CC04BC0DE
:100010004AC049C048C047C046C045C044C043C0AC
:1000200042C041C040C03F065B4F666D7D077F6F99
:10003000024A01024201026401000000026401025E
:100040004201024A01000000024101000000026476
:1000500003024203024A030242030237030242023E
:10006000000001000003026403024203024A03028B
:100070004203023103024202000001000000033E7D
:100080000102FC01027E0100000011241FBECFED21
:10009000CDBF20E0A0E6B0E001C01D92A937B207B5
:1000A000E1F7EFD1ABC3ACCF90E0FC01E559FF4FD6
:1000B000D082FC01E05AFF4F8A599F4FDC018C919E
:1000C00080830895CC2021F080E0EEDF81E003C042
:1000D00082E0EADF83E0E8CF90E0FC01EA59FF4FDD
:1000E0003081311106C0805A9F4FDC018C91BD2CAC
:1000F00080830895CC2041F010926B0080E0ECDF0B
:1001000010926C0081E007C010926D0082E0E4DF85
:1001100010926E0083E0E0CFE62FF0E0EA5DFF4F43
:10012000E49160E0411160E8E62BBD2CA82FB0E01F
:10013000AA59BF4FEC930895FF92CF93DF93D82F26
:10014000F62EC32D632D62956F7040E0E5DF6C2FB6
:100150006F704F2D81E08D0FDF91CF91FF90DCCF3D
:10016000FF92CF93DF93D82FF62EC12F612F629588
:100170006F7040E0D1DF6C2F6F704F2D81E08D0FDD
:10018000DF91CF91FF90C8CFCF93023051F1C22DB4
:10019000222089F0882329F1622D62956F7040E05A
:1001A00080E0BADF6C2F6F7041E081E0B5DF60E086
:1001B00082E0CF91C1CF332049F0882391F061E0F4
:1001C00080E0BADF60E082E0CF91CACF61E080E0FA
:1001D000C7DFBD2C10926800642D40E083E0CF9112
:1001E0009BCFCF91089581E0CFCF812F193511F4A6
:1001F00010E008C0912F9F70993011F4895F01C001
:100200008F5F182FF0DF80E0089582E0BDCF832D4F
:10021000893511F4312C08C0932D9F70993011F459
:10022000895F01C08F5F382EF0DF80E0089583E0A2
:10023000ABCF60DF822D2220B9F0CC2099F0833241
:1002400011F4212C08C0922D9F70993011F4895F10
:1002500001C08F5F282EEBDF211023C022242394BE
:10026000E6DF1FC0D4DF1DC0332059F0CC2039F0A9
:10027000CEDF311016C033243394C7DF12C0B5DF90
:1002800010C0CC2031F0B1DF11110BC011E0ABDF99
:1002900008C0342D412C393011F03F5F432E80E0EF
:1002A00073DF10CF81E08A95F1F70895C49AC39A5D
:1002B000F9DFC4980895C398F5DFC498F3DFC39AB3
:1002C000F1DFC49A0895CF93DF93D82FC8E0C39885
:1002D000D0FF02C0C49A01C0C498E4DFC39AE2DF31
:1002E000D695C150A1F7C398BC98C49ADBDFDADF7A
:1002F000C39AD8DFC398BC9ADF91CF910895CF936A
:10030000822D211004C083E2282ECD2D08C0922D0D
:100310009F7011F0815001C08750282EC0E087DF08
:100320008C2FCF910895CF93C82F832D311007C004
:1003300089E5382ECC2359F0E2DFC82F08C0932D71
:100340009F7011F0815001C08750382EC0E05DDFF2
:100350008C2FCF910895CF93C82F812F111107C0F3
:1003600019E5CC2361F081E0DEDFC82F08C0912FB2
:100370009F7011F0815001C08750182FC0E033DF0B
:100380008C2FCF910895B6DE222061F0CC2039F079
:10039000B6DF211028C033E2232E49DF24C080E0DD
:1003A000C2DF21C0332061F080E0CC2039F0BBDF18
:1003B000311019C099E5392E28DF15C0CCDF13C0E4
:1003C000CC2039F080E0C7DF11110DC019E50BDF3B
:1003D0000AC0842D411003C089E0482E02C081501C
:1003E000482E80E0D1DE6ECE412C10E0312C212C45
:1003F00080E0CADEF8DE09DF1ACFF6DF712C10E1EB
:10040000F2CE13BE03979093700080936F006D2C13
:1004100008950230B9F488E490E0F3DF10926B00A5
:1004200080E05ADE10926C0081E056DE10926D0082
:1004300082E052DE10926E0083E04EDE00E0C12CBE
:10044000DCDF40CE0895FC018081882381F06623A3
:1004500011F03FEF04C03181332321F0315031835B
:1004600080E0089510825FEF518381E00895662354
:1004700081F331813111F2CFD0824FEF418382E09D
:100480000895212C312C412C512C612C712C812C64
:10049000912CA12CBD2CC12CDD24D39400E010E0C4
:1004A00020E088E199E20FB6F894A89581BD0FBECF
:1004B00091BD899AB89ABA9ABB9AB998C19ABD98CF
:1004C000C59ABE98C69ABF98C79A8898909A8E98EF
:1004D000969A8C98949AD09277003FEF3093780058
:1004E0008D98959AD0927500309376008A98929A5A
:1004F000D0927300309374008B98939AD0927100CD
:100500003093720046ED53E35BBD4ABD59B750646A
:1005100059BF6EB56A606EBD91986FDFD3DD8EE70F
:1005200090E06FDF7894A895222309F4B3C020E00F
:10053000762D6620F9F07150672EE1F4A0916F00DE
:10054000B0917000ED012396D0937000C0936F00BE
:10055000FD013596E4916E2EE11102C013BE0AC072
:10056000FE01D4911496FD01B49112BEF2E4F0BFE5
:10057000B6BFD3BFD0E0C0E0F0906A00FE01E559FD
:10058000FF4F8081882379F0FF2019F08C2FA4DDA4
:100590000AC0FE01EA59FF4F9081DE01A05ABF4F09
:1005A0009C93BD2C10822196C430D10529F7F0947C
:1005B000F0926A00552061F1342D411006C079E0B7
:1005C000472E81E0C8DEC82F03C03150432EC0E063
:1005D00080E0DADDCC23E1F007DF512C91988EE446
:1005E00090E00FDF02E0BD2C4FE3409366005CE536
:1005F0005093670064E56093680079E77093690041
:1006000080E052DD81E050DD82E04EDD83E04CDDB4
:10061000D0916500BD2FB095B0936500D22111F047
:10062000C09A01C0C098F0917700F11109C08A2DDD
:10063000AA2019F08150A82E03C0011101C0A3DE29
:10064000F0907500F11009C0E92D992019F0E150E2
:100650009E2E03C0011101C0ECDD9091710091113B
:1006600019C0A82D8820B1F0A1508A2E99F401114B
:1006700008C0919A3FDD0D2D8CE390E0C2DE5D2C29
:1006800009C00D1107C091981DDD00E080E390E0E6
:10069000B8DE512CC0916400C730C1F168F4C43099
:1006A00059F128F4C230F1F0C33011F111C0C53056
:1006B00031F1C63039F10CC0CA30B9F128F4C83074
:1006C00051F1C93069F104C0CB3041F0CF3F99F10D
:1006D000C49ABC9AC39AEADD88E8F5DDECDD42E015
:1006E00040936400BB2039F1B12CE0DD53E021C020
:1006F00080E4E9DD54E01DC0DEDD55E01AC0D6DD42
:1007000056E017C080ECDFDD57E013C08091660033
:10071000DADD58E00EC080916700D5DD59E009C0F0
:1007200080916800D0DD5AE004C080916900CBDD83
:100730005BE05093640060B3607187E790E083DE14
:10074000813051F466E0A62E011105C088E490E0E6
:1007500058DE19DE01C05DDE60B3607285E790E0AF
:1007600072DE813051F456E0952E011105C088E407
:1007700090E047DE5EDD01C04CDE60B3647083E76D
:1007800090E061DE813051F4011107C088E490E00F
:1007900038DEB0DCC09496DC01C03BDE60B368702C
:1007A00081E790E050DE813019F44AE0842EBBCE20
:1007B000823009F0B8CE882009F4B5CE01111AC0F4
:1007C00088E490E01EDE96DC711008C00DDE7D2C02
:1007D00035E1332E1ADD10E306DD0AC07D1007C0B7
:1007E00003DE82E0782E98E0292E21DD01C005DEAF
:1007F00069DC99CE0EDE97CE21E01895F894FFCFF4
:00000001FF
